{
  "_format": "hh-sol-artifact-1",
  "contractName": "SimpleStorage",
  "sourceName": "contracts/SimpleStorage.sol",
  "abi": [
    {
      "inputs": [
        {
          "internalType": "string",
          "name": "_name",
          "type": "string"
        },
        {
          "internalType": "uint256",
          "name": "_favoriteNumber",
          "type": "uint256"
        }
      ],
      "name": "addPerson",
      "outputs": [],
      "stateMutability": "nonpayable",
      "type": "function"
    },
    {
      "inputs": [
        {
          "internalType": "string",
          "name": "",
          "type": "string"
        }
      ],
      "name": "nameToFavoriteNumber",
      "outputs": [
        {
          "internalType": "uint256",
          "name": "",
          "type": "uint256"
        }
      ],
      "stateMutability": "view",
      "type": "function"
    },
    {
      "inputs": [
        {
          "internalType": "uint256",
          "name": "",
          "type": "uint256"
        }
      ],
      "name": "people",
      "outputs": [
        {
          "internalType": "uint256",
          "name": "favoriteNumber",
          "type": "uint256"
        },
        {
          "internalType": "string",
          "name": "name",
          "type": "string"
        }
      ],
      "stateMutability": "view",
      "type": "function"
    },
    {
      "inputs": [],
      "name": "retrieve",
      "outputs": [
        {
          "internalType": "uint256",
          "name": "",
          "type": "uint256"
        }
      ],
      "stateMutability": "view",
      "type": "function"
    },
    {
      "inputs": [
        {
          "internalType": "uint256",
          "name": "_favoriteNumber",
          "type": "uint256"
        }
      ],
      "name": "store",
      "outputs": [],
      "stateMutability": "nonpayable",
      "type": "function"
    }
  ],
  "bytecode": "0x608060405234801561001057600080fd5b50610581806100206000396000f3fe608060405234801561001057600080fd5b50600436106100575760003560e01c80632e64cec11461005c5780636057361d146100735780636f760f41146100885780638bab8dd51461009b5780639e7a13ad146100c6575b600080fd5b6000545b6040519081526020015b60405180910390f35b610086610081366004610248565b600055565b005b610086610096366004610304565b6100e7565b6100606100a9366004610349565b805160208183018101805160028252928201919093012091525481565b6100d96100d4366004610248565b610190565b60405161006a9291906103aa565b6040805180820190915281815260208101838152600180548082018255600091909152825160029091027fb10e2d527612073b26eecdfd717e6a320cf44b4afac2b0732d9fcbe2b7fa0cf68101918255915190917fb10e2d527612073b26eecdfd717e6a320cf44b4afac2b0732d9fcbe2b7fa0cf70190610168908261046f565b5050508060028360405161017c919061052f565b908152604051908190036020019020555050565b600181815481106101a057600080fd5b600091825260209091206002909102018054600182018054919350906101c5906103e4565b80601f01602080910402602001604051908101604052809291908181526020018280546101f1906103e4565b801561023e5780601f106102135761010080835404028352916020019161023e565b820191906000526020600020905b81548152906001019060200180831161022157829003601f168201915b5050505050905082565b60006020828403121561025a57600080fd5b5035919050565b634e487b7160e01b600052604160045260246000fd5b600082601f83011261028857600080fd5b813567ffffffffffffffff808211156102a3576102a3610261565b604051601f8301601f19908116603f011681019082821181831017156102cb576102cb610261565b816040528381528660208588010111156102e457600080fd5b836020870160208301376000602085830101528094505050505092915050565b6000806040838503121561031757600080fd5b823567ffffffffffffffff81111561032e57600080fd5b61033a85828601610277565b95602094909401359450505050565b60006020828403121561035b57600080fd5b813567ffffffffffffffff81111561037257600080fd5b61037e84828501610277565b949350505050565b60005b838110156103a1578181015183820152602001610389565b50506000910152565b82815260406020820152600082518060408401526103cf816060850160208701610386565b601f01601f1916919091016060019392505050565b600181811c908216806103f857607f821691505b60208210810361041857634e487b7160e01b600052602260045260246000fd5b50919050565b601f82111561046a576000816000526020600020601f850160051c810160208610156104475750805b601f850160051c820191505b8181101561046657828155600101610453565b5050505b505050565b815167ffffffffffffffff81111561048957610489610261565b61049d8161049784546103e4565b8461041e565b602080601f8311600181146104d257600084156104ba5750858301515b600019600386901b1c1916600185901b178555610466565b600085815260208120601f198616915b82811015610501578886015182559484019460019091019084016104e2565b508582101561051f5787850151600019600388901b60f8161c191681555b5050505050600190811b01905550565b60008251610541818460208701610386565b919091019291505056fea2646970667358221220265d3b28dffb86a8c2f64e133e9729d4b0f88317213366f6b81ccc3bdb5b747764736f6c63430008180033",
  "linkReferences": {},
  "deployedLinkReferences": {}
}