{
  "_format": "hh-sol-artifact-1",
  "contractName": "Raffle",
  "sourceName": "contracts/Raffle.sol",
  "abi": [
    {
      "inputs": [
        {
          "internalType": "address",
          "name": "vrfCoordinator",
          "type": "address"
        },
        {
          "internalType": "uint256",
          "name": "entranceFee",
          "type": "uint256"
        },
        {
          "internalType": "bytes32",
          "name": "gasLine",
          "type": "bytes32"
        },
        {
          "internalType": "uint64",
          "name": "subscriptionId",
          "type": "uint64"
        },
        {
          "internalType": "uint32",
          "name": "callbackGasLimit",
          "type": "uint32"
        },
        {
          "internalType": "uint256",
          "name": "interval",
          "type": "uint256"
        }
      ],
      "stateMutability": "nonpayable",
      "type": "constructor"
    },
    {
      "inputs": [
        {
          "internalType": "address",
          "name": "have",
          "type": "address"
        },
        {
          "internalType": "address",
          "name": "want",
          "type": "address"
        }
      ],
      "name": "OnlyCoordinatorCanFulfill",
      "type": "error"
    },
    {
      "inputs": [],
      "name": "Raffle_NotOpen",
      "type": "error"
    },
    {
      "inputs": [
        {
          "internalType": "uint256",
          "name": "currentBalance",
          "type": "uint256"
        },
        {
          "internalType": "uint256",
          "name": "numPlayers",
          "type": "uint256"
        },
        {
          "internalType": "uint256",
          "name": "raffeState",
          "type": "uint256"
        }
      ],
      "name": "Raffle__UpkeepNotNeeded",
      "type": "error"
    },
    {
      "anonymous": false,
      "inputs": [
        {
          "indexed": true,
          "internalType": "address",
          "name": "player",
          "type": "address"
        }
      ],
      "name": "RaffleEnter",
      "type": "event"
    },
    {
      "anonymous": false,
      "inputs": [
        {
          "indexed": true,
          "internalType": "uint256",
          "name": "requestId",
          "type": "uint256"
        }
      ],
      "name": "RequestRaffleWinner",
      "type": "event"
    },
    {
      "anonymous": false,
      "inputs": [
        {
          "indexed": true,
          "internalType": "address",
          "name": "winner",
          "type": "address"
        }
      ],
      "name": "WinnerPicked",
      "type": "event"
    },
    {
      "inputs": [
        {
          "internalType": "bytes",
          "name": "",
          "type": "bytes"
        }
      ],
      "name": "checkUpkeep",
      "outputs": [
        {
          "internalType": "bool",
          "name": "upkeepNeeded",
          "type": "bool"
        },
        {
          "internalType": "bytes",
          "name": "",
          "type": "bytes"
        }
      ],
      "stateMutability": "nonpayable",
      "type": "function"
    },
    {
      "inputs": [],
      "name": "enterRaffle",
      "outputs": [],
      "stateMutability": "payable",
      "type": "function"
    },
    {
      "inputs": [],
      "name": "getEntranceFee",
      "outputs": [
        {
          "internalType": "uint256",
          "name": "",
          "type": "uint256"
        }
      ],
      "stateMutability": "view",
      "type": "function"
    },
    {
      "inputs": [],
      "name": "getLatestTimeStamp",
      "outputs": [
        {
          "internalType": "uint256",
          "name": "",
          "type": "uint256"
        }
      ],
      "stateMutability": "view",
      "type": "function"
    },
    {
      "inputs": [],
      "name": "getNumWords",
      "outputs": [
        {
          "internalType": "uint256",
          "name": "",
          "type": "uint256"
        }
      ],
      "stateMutability": "pure",
      "type": "function"
    },
    {
      "inputs": [],
      "name": "getNumofPlayers",
      "outputs": [
        {
          "internalType": "uint256",
          "name": "",
          "type": "uint256"
        }
      ],
      "stateMutability": "view",
      "type": "function"
    },
    {
      "inputs": [
        {
          "internalType": "uint256",
          "name": "index",
          "type": "uint256"
        }
      ],
      "name": "getPlayer",
      "outputs": [
        {
          "internalType": "address",
          "name": "",
          "type": "address"
        }
      ],
      "stateMutability": "view",
      "type": "function"
    },
    {
      "inputs": [],
      "name": "getRaffleState",
      "outputs": [
        {
          "internalType": "enum Raffle.RaffleState",
          "name": "",
          "type": "uint8"
        }
      ],
      "stateMutability": "view",
      "type": "function"
    },
    {
      "inputs": [],
      "name": "getRecentWinner",
      "outputs": [
        {
          "internalType": "address",
          "name": "",
          "type": "address"
        }
      ],
      "stateMutability": "view",
      "type": "function"
    },
    {
      "inputs": [],
      "name": "getRequestConfermation",
      "outputs": [
        {
          "internalType": "uint256",
          "name": "",
          "type": "uint256"
        }
      ],
      "stateMutability": "pure",
      "type": "function"
    },
    {
      "inputs": [
        {
          "internalType": "bytes",
          "name": "",
          "type": "bytes"
        }
      ],
      "name": "performUpkeep",
      "outputs": [],
      "stateMutability": "nonpayable",
      "type": "function"
    },
    {
      "inputs": [
        {
          "internalType": "uint256",
          "name": "requestId",
          "type": "uint256"
        },
        {
          "internalType": "uint256[]",
          "name": "randomWords",
          "type": "uint256[]"
        }
      ],
      "name": "rawFulfillRandomWords",
      "outputs": [],
      "stateMutability": "nonpayable",
      "type": "function"
    }
  ],
  "bytecode": "0x6101606040523480156200001257600080fd5b506040516200188738038062001887833981810160405281019062000038919062000294565b858073ffffffffffffffffffffffffffffffffffffffff1660808173ffffffffffffffffffffffffffffffffffffffff1681525050508460a081815250508573ffffffffffffffffffffffffffffffffffffffff1660c08173ffffffffffffffffffffffffffffffffffffffff16815250508360e081815250508267ffffffffffffffff166101008167ffffffffffffffff16815250508163ffffffff166101208163ffffffff16815250506000600160146101000a81548160ff021916908360018111156200010d576200010c62000330565b5b0217905550426002819055508061014081815250505050505050506200035f565b600080fd5b600073ffffffffffffffffffffffffffffffffffffffff82169050919050565b6000620001608262000133565b9050919050565b620001728162000153565b81146200017e57600080fd5b50565b600081519050620001928162000167565b92915050565b6000819050919050565b620001ad8162000198565b8114620001b957600080fd5b50565b600081519050620001cd81620001a2565b92915050565b6000819050919050565b620001e881620001d3565b8114620001f457600080fd5b50565b6000815190506200020881620001dd565b92915050565b600067ffffffffffffffff82169050919050565b6200022d816200020e565b81146200023957600080fd5b50565b6000815190506200024d8162000222565b92915050565b600063ffffffff82169050919050565b6200026e8162000253565b81146200027a57600080fd5b50565b6000815190506200028e8162000263565b92915050565b60008060008060008060c08789031215620002b457620002b36200012e565b5b6000620002c489828a0162000181565b9650506020620002d789828a01620001bc565b9550506040620002ea89828a01620001f7565b9450506060620002fd89828a016200023c565b93505060806200031089828a016200027d565b92505060a06200032389828a01620001bc565b9150509295509295509295565b7f4e487b7100000000000000000000000000000000000000000000000000000000600052602160045260246000fd5b60805160a05160c05160e0516101005161012051610140516114bf620003c860003960006107a801526000610673015260006106500152600061062f015260006105f30152600081816102b401526103bd0152600081816102f1015261034501526114bf6000f3fe6080604052600436106100a75760003560e01c80634585e33b116100645780634585e33b1461018b578063473f1ddc146101b457806353a2c19a146101df5780636e04ff0d1461020a578063c79782cb14610248578063e55ae4e814610273576100a7565b806309bc33a7146100ac578063115cbaf5146100d75780631fe543e31461010257806326db15c81461012b5780632cfcc53914610156578063320229eb14610160575b600080fd5b3480156100b857600080fd5b506100c16102b0565b6040516100ce9190610b60565b60405180910390f35b3480156100e357600080fd5b506100ec6102d8565b6040516100f99190610bf2565b60405180910390f35b34801561010e57600080fd5b5061012960048036038101906101249190610da6565b6102ef565b005b34801561013757600080fd5b506101406103af565b60405161014d9190610b60565b60405180910390f35b61015e6103bb565b005b34801561016c57600080fd5b50610175610532565b6040516101829190610b60565b60405180910390f35b34801561019757600080fd5b506101b260048036038101906101ad9190610e5d565b61053c565b005b3480156101c057600080fd5b506101c961072c565b6040516101d69190610eeb565b60405180910390f35b3480156101eb57600080fd5b506101f4610756565b6040516102019190610b60565b60405180910390f35b34801561021657600080fd5b50610231600480360381019061022c9190610fbb565b610765565b60405161023f92919061109e565b60405180910390f35b34801561025457600080fd5b5061025d610812565b60405161026a9190610b60565b60405180910390f35b34801561027f57600080fd5b5061029a600480360381019061029591906110ce565b61081f565b6040516102a79190610eeb565b60405180910390f35b60007f0000000000000000000000000000000000000000000000000000000000000000905090565b6000600160149054906101000a900460ff16905090565b7f000000000000000000000000000000000000000000000000000000000000000073ffffffffffffffffffffffffffffffffffffffff163373ffffffffffffffffffffffffffffffffffffffff16146103a157337f00000000000000000000000000000000000000000000000000000000000000006040517f1cf993f40000000000000000000000000000000000000000000000000000000081526004016103989291906110fb565b60405180910390fd5b6103ab8282610866565b5050565b60008080549050905090565b7f0000000000000000000000000000000000000000000000000000000000000000341461041d576040517f08c379a000000000000000000000000000000000000000000000000000000000815260040161041490611181565b60405180910390fd5b6000600181111561043157610430610b7b565b5b600160149054906101000a900460ff16600181111561045357610452610b7b565b5b1461048a576040517fd6e19a8d00000000000000000000000000000000000000000000000000000000815260040160405180910390fd5b6000339080600181540180825580915050600190039060005260206000200160009091909190916101000a81548173ffffffffffffffffffffffffffffffffffffffff021916908373ffffffffffffffffffffffffffffffffffffffff1602179055503373ffffffffffffffffffffffffffffffffffffffff167f0805e1d667bddb8a95f0f09880cf94f403fb596ce79928d9f29b74203ba284d460405160405180910390a2565b6000600254905090565b600061055660405180602001604052806000815250610765565b509050806105c55747600080549050600160149054906101000a900460ff16600181111561058757610586610b7b565b5b6040517f584327aa0000000000000000000000000000000000000000000000000000000081526004016105bc939291906111a1565b60405180910390fd5b60018060146101000a81548160ff021916908360018111156105ea576105e9610b7b565b5b021790555060007f000000000000000000000000000000000000000000000000000000000000000073ffffffffffffffffffffffffffffffffffffffff16635d3b1d307f00000000000000000000000000000000000000000000000000000000000000007f000000000000000000000000000000000000000000000000000000000000000060037f000000000000000000000000000000000000000000000000000000000000000060016040518663ffffffff1660e01b81526004016106b4959493929190611250565b6020604051808303816000875af11580156106d3573d6000803e3d6000fd5b505050506040513d601f19601f820116820180604052508101906106f791906112b8565b9050807fde6349b018d6c03d837b67d9a198a6ba4842546f2295fe963fae141e5dbaef8160405160405180910390a250505050565b6000600160009054906101000a900473ffffffffffffffffffffffffffffffffffffffff16905090565b6000600163ffffffff16905090565b600060606000600160149054906101000a900460ff16600181111561078d5761078c610b7b565b5b600060018111156107a1576107a0610b7b565b5b14905060007f0000000000000000000000000000000000000000000000000000000000000000600254426107d59190611314565b119050600080600080549050119050600080471190508380156107f55750825b80156107fe5750815b80156108075750805b955050505050915091565b6000600361ffff16905090565b600080828154811061083457610833611348565b5b9060005260206000200160009054906101000a900473ffffffffffffffffffffffffffffffffffffffff169050919050565b600080805490508260008151811061088157610880611348565b5b602002602001015161089391906113a6565b905060008082815481106108aa576108a9611348565b5b9060005260206000200160009054906101000a900473ffffffffffffffffffffffffffffffffffffffff16905080600160006101000a81548173ffffffffffffffffffffffffffffffffffffffff021916908373ffffffffffffffffffffffffffffffffffffffff1602179055506000600160146101000a81548160ff0219169083600181111561093e5761093d610b7b565b5b0217905550600067ffffffffffffffff81111561095e5761095d610c63565b5b60405190808252806020026020018201604052801561098c5781602001602082028036833780820191505090505b50600090805190602001906109a2929190610aa0565b504260028190555060008173ffffffffffffffffffffffffffffffffffffffff16476040516109d090611408565b60006040518083038185875af1925050503d8060008114610a0d576040519150601f19603f3d011682016040523d82523d6000602084013e610a12565b606091505b5050905080610a56576040517f08c379a0000000000000000000000000000000000000000000000000000000008152600401610a4d90611469565b60405180910390fd5b8173ffffffffffffffffffffffffffffffffffffffff167f5b690ec4a06fe979403046eaeea5b3ce38524683c3001f662c8b5a829632f7df60405160405180910390a25050505050565b828054828255906000526020600020908101928215610b19579160200282015b82811115610b185782518260006101000a81548173ffffffffffffffffffffffffffffffffffffffff021916908373ffffffffffffffffffffffffffffffffffffffff16021790555091602001919060010190610ac0565b5b509050610b269190610b2a565b5090565b5b80821115610b43576000816000905550600101610b2b565b5090565b6000819050919050565b610b5a81610b47565b82525050565b6000602082019050610b756000830184610b51565b92915050565b7f4e487b7100000000000000000000000000000000000000000000000000000000600052602160045260246000fd5b60028110610bbb57610bba610b7b565b5b50565b6000819050610bcc82610baa565b919050565b6000610bdc82610bbe565b9050919050565b610bec81610bd1565b82525050565b6000602082019050610c076000830184610be3565b92915050565b6000604051905090565b600080fd5b600080fd5b610c2a81610b47565b8114610c3557600080fd5b50565b600081359050610c4781610c21565b92915050565b600080fd5b6000601f19601f8301169050919050565b7f4e487b7100000000000000000000000000000000000000000000000000000000600052604160045260246000fd5b610c9b82610c52565b810181811067ffffffffffffffff82111715610cba57610cb9610c63565b5b80604052505050565b6000610ccd610c0d565b9050610cd98282610c92565b919050565b600067ffffffffffffffff821115610cf957610cf8610c63565b5b602082029050602081019050919050565b600080fd5b6000610d22610d1d84610cde565b610cc3565b90508083825260208201905060208402830185811115610d4557610d44610d0a565b5b835b81811015610d6e5780610d5a8882610c38565b845260208401935050602081019050610d47565b5050509392505050565b600082601f830112610d8d57610d8c610c4d565b5b8135610d9d848260208601610d0f565b91505092915050565b60008060408385031215610dbd57610dbc610c17565b5b6000610dcb85828601610c38565b925050602083013567ffffffffffffffff811115610dec57610deb610c1c565b5b610df885828601610d78565b9150509250929050565b600080fd5b60008083601f840112610e1d57610e1c610c4d565b5b8235905067ffffffffffffffff811115610e3a57610e39610e02565b5b602083019150836001820283011115610e5657610e55610d0a565b5b9250929050565b60008060208385031215610e7457610e73610c17565b5b600083013567ffffffffffffffff811115610e9257610e91610c1c565b5b610e9e85828601610e07565b92509250509250929050565b600073ffffffffffffffffffffffffffffffffffffffff82169050919050565b6000610ed582610eaa565b9050919050565b610ee581610eca565b82525050565b6000602082019050610f006000830184610edc565b92915050565b600080fd5b600067ffffffffffffffff821115610f2657610f25610c63565b5b610f2f82610c52565b9050602081019050919050565b82818337600083830152505050565b6000610f5e610f5984610f0b565b610cc3565b905082815260208101848484011115610f7a57610f79610f06565b5b610f85848285610f3c565b509392505050565b600082601f830112610fa257610fa1610c4d565b5b8135610fb2848260208601610f4b565b91505092915050565b600060208284031215610fd157610fd0610c17565b5b600082013567ffffffffffffffff811115610fef57610fee610c1c565b5b610ffb84828501610f8d565b91505092915050565b60008115159050919050565b61101981611004565b82525050565b600081519050919050565b600082825260208201905092915050565b60005b8381101561105957808201518184015260208101905061103e565b60008484015250505050565b60006110708261101f565b61107a818561102a565b935061108a81856020860161103b565b61109381610c52565b840191505092915050565b60006040820190506110b36000830185611010565b81810360208301526110c58184611065565b90509392505050565b6000602082840312156110e4576110e3610c17565b5b60006110f284828501610c38565b91505092915050565b60006040820190506111106000830185610edc565b61111d6020830184610edc565b9392505050565b600082825260208201905092915050565b7f496e636f72726563742045746820616d6f756e74000000000000000000000000600082015250565b600061116b601483611124565b915061117682611135565b602082019050919050565b6000602082019050818103600083015261119a8161115e565b9050919050565b60006060820190506111b66000830186610b51565b6111c36020830185610b51565b6111d06040830184610b51565b949350505050565b6000819050919050565b6111eb816111d8565b82525050565b600067ffffffffffffffff82169050919050565b61120e816111f1565b82525050565b600061ffff82169050919050565b61122b81611214565b82525050565b600063ffffffff82169050919050565b61124a81611231565b82525050565b600060a08201905061126560008301886111e2565b6112726020830187611205565b61127f6040830186611222565b61128c6060830185611241565b6112996080830184611241565b9695505050505050565b6000815190506112b281610c21565b92915050565b6000602082840312156112ce576112cd610c17565b5b60006112dc848285016112a3565b91505092915050565b7f4e487b7100000000000000000000000000000000000000000000000000000000600052601160045260246000fd5b600061131f82610b47565b915061132a83610b47565b9250828203905081811115611342576113416112e5565b5b92915050565b7f4e487b7100000000000000000000000000000000000000000000000000000000600052603260045260246000fd5b7f4e487b7100000000000000000000000000000000000000000000000000000000600052601260045260246000fd5b60006113b182610b47565b91506113bc83610b47565b9250826113cc576113cb611377565b5b828206905092915050565b600081905092915050565b50565b60006113f26000836113d7565b91506113fd826113e2565b600082019050919050565b6000611413826113e5565b9150819050919050565b7f5472616e73666572206661696c65640000000000000000000000000000000000600082015250565b6000611453600f83611124565b915061145e8261141d565b602082019050919050565b6000602082019050818103600083015261148281611446565b905091905056fea26469706673582212203efb17a78588abd2104d74c0bde7b42ec0b9111e1ed7b1cd3b117ef0d2738a1c64736f6c63430008180033",
  "linkReferences": {},
  "deployedLinkReferences": {}
}